:020000040800F2
:10000000000005205D1A000875190008771900081E
:10001000791900087B1900087D190008000000000C
:10002000000000000000000000000000C1A0000867
:100030007F1900080000000061A10008C5A10008A8
:10004000AD1A0008AD1A0008AD1A0008AD1A000874
:10005000AD1A0008AD1A0008AD1A0008AD1A000864
:10006000AD1A0008AD1A0008AD1A0008AD1A000854
:10007000AD1A0008AD1A0008AD1A0008AD1A000844
:10008000AD1A0008AD1A0008AD1A0008AD1A000834
:10009000AD1A0008AD1A0008AD1A0008AD1A000824
:1000A000AD1A0008AD1A0008AD1A0008AD1A000814
:1000B000AD1A0008AD1A0008AD1A0008AD1A000804
:1000C000AD1A0008AD1A0008AD1A0008AD1A0008F4
:1000D000AD1A0008AD1A0008AD1A0008AD1A0008E4
:1000E000AD1A0008AD1A0008AD1A0008AD1A0008D4
:1000F000AD1A0008AD1A0008AD1A0008AD1A0008C4
:10010000AD1A0008AD1A0008AD1A0008AD1A0008B3
:10011000AD1A0008AD1A000881190008AD1A0008D0
:10012000AD1A0008AD1A0008AD1A0008AD1A000893
:10013000AD1A0008AD1A0008AD1A0008AD1A000883
:10014000AD1A0008AD1A0008AD1A0008AD1A000873
:10015000AD1A0008AD1A0008AD1A00088D19000884
:10016000AD1A0008AD1A0008AD1A0008AD1A000853
:10017000AD1A0008AD1A0008AD1A00080000000012
:10018000AD1A0008AD1A0008AD1A0008AD1A000833
:10019000AD1A0008AD1A0008AD1A0008AD1A000823
:1001A00099190008AD1A0008A5190008AD1A000831
:1001B000AD1A0008AD1A0008AD1A0008AD1A000803
:0801C000AD1A0008AD1A000899
:1001D00010B5054C237833B9044B13B10448AFF381
:1001E00000800123237010BD4001002000000000AA
:1001F000302C020808B5034B1BB103490348AFF389
:10020000008008BD0000000044010020302C0208DE
:1002100001F0FF01102A2BDB10F0070F08D010F8B7
:10022000013B013A8B422DD010F0070F42B3F6D1BB
:10023000F0B441EA012141EA014122F007047FF0D4
:1002400000070023F0E80256083C85EA010586EA2B
:10025000010685FA47F5A3FA87F586FA47F6A5FA67
:1002600087F68EB9EED1F0BC01F0FF0102F0070273
:1002700032B110F8013B013A83EA010313B1F8D11E
:100280000020704701387047002D06BF35460338FF
:10029000073815F0010F07D1013015F4807F02BF38
:1002A000013015F4C03F0130F0BC0138704700BF89
:1002B00081F0004102E000BF83F0004330B54FEA17
:1002C00041044FEA430594EA050F08BF90EA020F84
:1002D0001FBF54EA000C55EA020C7FEA645C7FEA17
:1002E000655C00F0E2804FEA5454D4EB5555B8BF3A
:1002F0006D420CDD2C4480EA020281EA030382EAAB
:10030000000083EA010180EA020281EA0303362D3C
:1003100088BF30BD11F0004F4FEA01314FF4801C0F
:100320004CEA113102D0404261EB410113F0004F21
:100330004FEA03334CEA133302D0524263EB4303D8
:1003400094EA050F00F0A780A4F10104D5F1200E76
:100350000DDB02FA0EFC22FA05F2801841F10001D1
:1003600003FA0EF2801843FA05F359410EE0A5F1A5
:1003700020050EF1200E012A03FA0EFC28BF4CF0D6
:10038000020C43FA05F3C01851EBE37101F000458C
:1003900007D54FF0000EDCF1000C7EEB00006EEB99
:1003A0000101B1F5801F1BD3B1F5001F0CD3490823
:1003B0005FEA30004FEA3C0C04F101044FEA44527A
:1003C00012F5800F80F09A80BCF1004F08BF5FEA01
:1003D000500C50F1000041EB045141EA050130BDE1
:1003E0005FEA4C0C404141EB0101013C28BFB1F5F3
:1003F000801FE9D291F0000F04BF01460020B1FA3E
:1004000081F308BF2033A3F10B03B3F120020CDA10
:100410000C3208DD02F1140CC2F10C0201FA0CF0EE
:1004200021FA02F10CE002F11402D8BFC2F1200C53
:1004300001FA02F120FA0CFCDCBF41EA0C01904009
:10044000E41AA2BF01EB0451294330BD6FEA040452
:100450001F3C1CDA0C340EDC04F11404C4F120023D
:1004600020FA04F001FA02F340EA030021FA04F34F
:1004700045EA030130BDC4F10C04C4F1200220FAA6
:1004800002F001FA04F340EA0300294630BD21FAE4
:1004900004F0294630BD94F0000F83F4801306BFAA
:1004A00081F480110134013D4EE77FEA645C18BF9E
:1004B0007FEA655C29D094EA050F08BF90EA020F35
:1004C00005D054EA000C04BF1946104630BD91EA2D
:1004D000030F1EBF0021002030BD5FEA545C05D130
:1004E0004000494128BF41F0004130BD14F580046F
:1004F0003CBF01F5801130BD01F0004545F0FE41E3
:1005000041F470014FF0000030BD7FEA645C1ABF17
:10051000194610467FEA655C1CBF0B46024650EA4E
:10052000013406BF52EA033591EA030F41F400217A
:1005300030BD00BF90F0000F04BF0021704730B500
:100540004FF4806404F132044FF000054FF00001D5
:1005500050E700BF90F0000F04BF0021704730B596
:100560004FF4806404F1320410F0004548BF40426B
:100570004FF000013EE700BF42004FEAE2014FEAC0
:1005800031014FEA02701FBF12F07F4393F07F4F9B
:1005900081F06051704732F07F4208BF704793F09E
:1005A0007F4F04BF41F40021704730B54FF46074B1
:1005B00001F0004521F000411CE700BF50EA0102B4
:1005C00008BF704730B54FF000050AE050EA01025D
:1005D00008BF704730B511F0004502D5404261EBCD
:1005E00041014FF4806404F132045FEA915C3FF40E
:1005F000D8AE4FF003025FEADC0C18BF03325FEAAB
:10060000DC0C18BF033202EBDC02C2F1200300FA5B
:1006100003FC20FA02F001FA03FE40EA0E0021FA80
:1006200002F11444BDE600BF70B54FF0FF0C4CF46E
:10063000E06C1CEA11541DBF1CEA135594EA0C0F20
:1006400095EA0C0F00F0DEF82C4481EA030621EA5B
:100650004C5123EA4C5350EA013518BF52EA033596
:1006600041F4801143F4801338D0A0FB02CE4FF048
:100670000005E1FB02E506F00042E0FB03E54FF078
:100680000006E1FB03569CF0000F18BF4EF0010E70
:10069000A4F1FF04B6F5007F64F5407404D25FEA6C
:1006A0004E0E6D4146EB060642EAC62141EA55511F
:1006B0004FEAC52040EA5E504FEACE2EB4F1FD0C61
:1006C00088BFBCF5E06F1ED8BEF1004F08BF5FEADF
:1006D000500E50F1000041EB045170BD06F0004691
:1006E00046EA010140EA020081EA0301B4EB5C043E
:1006F000C2BFD4EB0C0541EA045170BD41F4801136
:100700004FF0000E013C00F3AB8014F1360FDEBF5A
:10071000002001F0004170BDC4F10004203C35DA36
:100720000C341BDC04F11404C4F1200500FA05F3B9
:1007300020FA04F001FA05F240EA020001F000425A
:1007400021F0004110EBD37021FA04F642EB0601D0
:100750005EEA430E08BF20EAD37070BDC4F10C04FA
:10076000C4F1200500FA04F320FA05F001FA04F2BE
:1007700040EA020001F0004110EBD37041F10001AA
:100780005EEA430E08BF20EAD37070BDC4F12005B5
:1007900000FA05F24EEA020E20FA04F301FA05F21D
:1007A00043EA020321FA04F001F0004121FA04F2C5
:1007B00020EA020000EBD3705EEA430E08BF20EA95
:1007C000D37070BD94F0000F0FD101F000464000CF
:1007D00041EB010111F4801F08BF013CF7D041EA51
:1007E000060195F0000F18BF704703F00046520055
:1007F00043EB030313F4801F08BF013DF7D043EA26
:100800000603704794EA0C0F0CEA135518BF95EADB
:100810000C0F0CD050EA410618BF52EA4306D1D162
:1008200081EA030101F000414FF0000070BD50EA81
:10083000410606BF1046194652EA430619D094EA0B
:100840000C0F02D150EA013613D195EA0C0F05D1F5
:1008500052EA03361CBF104619460AD181EA030149
:1008600001F0004141F0FE4141F470014FF0000001
:1008700070BD41F0FE4141F4780170BD70B54FF09C
:10088000FF0C4CF4E06C1CEA11541DBF1CEA13551C
:1008900094EA0C0F95EA0C0F00F0A7F8A4EB0504FE
:1008A00081EA030E52EA03354FEA013100F08880F5
:1008B0004FEA03334FF0805545EA131343EA1263BE
:1008C0004FEA022245EA111545EA10654FEA002673
:1008D0000EF000419D4208BF964244F1FD0404F52C
:1008E000407402D25B084FEA3202B61A65EB030588
:1008F0005B084FEA32024FF480104FF4002CB6EB45
:10090000020E75EB030E22BFB61A754640EA0C00C4
:100910005B084FEA3202B6EB020E75EB030E22BF04
:10092000B61A754640EA5C005B084FEA3202B6EB45
:10093000020E75EB030E22BFB61A754640EA9C0004
:100940005B084FEA3202B6EB020E75EB030E22BFD4
:10095000B61A754640EADC0055EA060E18D04FEA92
:10096000051545EA16754FEA06164FEAC30343EA32
:1009700052734FEAC2025FEA1C1CC0D111F4801FFF
:100980000BD141EA00014FF000004FF0004CB6E7F8
:1009900011F4801F04BF01430020B4F1FD0C88BF97
:1009A000BCF5E06F3FF6AFAEB5EB030C04BFB6EBA2
:1009B000020C5FEA500C50F1000041EB045170BD95
:1009C0000EF0004E4EEA113114EB5C04C2BFD4EBC2
:1009D0000C0541EA045170BD41F480114FF0000E46
:1009E000013C90E645EA060E8DE60CEA135594EAC2
:1009F0000C0F08BF95EA0C0F3FF43BAF94EA0C0FC5
:100A00000AD150EA01347FF434AF95EA0C0F7FF439
:100A100025AF104619462CE795EA0C0F06D152EA8D
:100A200003353FF4FDAE1046194622E750EA410671
:100A300018BF52EA43067FF4C5AE50EA41047FF482
:100A40000DAF52EA43057FF4EBAE12E74FF0FF3CE7
:100A500006E000BF4FF0010C02E000BF4FF0010CB8
:100A60004DF804CD4FEA410C7FEA6C5C4FEA430C31
:100A700018BF7FEA6C5C1BD001B050EA410C0CBF80
:100A800052EA430C91EA030F02BF90EA020F0020E2
:100A9000704710F1000F91EA030F58BF994208BF49
:100AA00090422CBFD8176FEAE37040F00100704706
:100AB0004FEA410C7FEA6C5C02D150EA013C07D15D
:100AC0004FEA430C7FEA6C5CD6D152EA033CD3D0A8
:100AD0005DF8040B704700BF8446104662468C46A2
:100AE0001946634600E000BF01B5FFF7B7FF0028D5
:100AF00048BF10F1000F01BD4DF808EDFFF7F4FFFE
:100B00000CBF012000205DF808FB00BF4DF808ED88
:100B1000FFF7EAFF34BF012000205DF808FB00BFAB
:100B20004DF808EDFFF7E0FF94BF012000205DF8CD
:100B300008FB00BF4DF808EDFFF7CEFF94BF012082
:100B400000205DF808FB00BF4DF808EDFFF7C4FF7B
:100B500034BF012000205DF808FB00BF4FEA4102CE
:100B600012F5001215D211D56FF47873B3EB6252FF
:100B700012D94FEAC12343F0004343EA505311F026
:100B8000004F23FA02F018BF404270474FF00000B8
:100B9000704750EA013005D111F0004008BF6FF0F6
:100BA000004070474FF00000704700BF53B94AB98A
:100BB000002908BF00281CBF4FF0FF314FF0FF3065
:100BC00000F06EB9ADF1080C6DE904CE00F006F846
:100BD000DDF804E0DDE9022304B070472DE9F047B9
:100BE000089D04468C46002B40F083808A421746BD
:100BF00047D9B2FA82F242B1C2F1200024FA00F0E1
:100C00009140974040EA010C94404FEA1748230C6A
:100C1000BCFBF8F61FFA87FE08FB16C143EA014346
:100C200006FB0EF1994209D9FB1806F1FF3080F05E
:100C30001981994240F21681023E3B445B1AA4B2EC
:100C4000B3FBF8F008FB103344EA034400FB0EFE4C
:100C5000A64509D93C1900F1FF3380F00581A6456E
:100C600040F2028102383C4440EA0640A4EB0E0404
:100C700000261DB1D4400023C5E900433146BDE83C
:100C8000F08702B9FFDEB2FA82F2002A50D1CB1B04
:100C90004FEA174E1FFA87F80126B3FBFEFC210C22
:100CA0000EFB1C3341EA034108FB0CF38B4207D9CE
:100CB00079180CF1FF3002D28B4200F2E9808446B1
:100CC000C91AA3B2B1FBFEF00EFB101143EA0144B6
:100CD00008FB00F8A04507D93C1900F1FF3302D208
:100CE000A04500F2D9801846A4EB080440EA0C4065
:100CF000BFE78B4209D9002D00F0B1800026C5E97D
:100D0000000130463146BDE8F087B3FA83F6002E85
:100D10004AD18B4202D3824200F2B880841A61EB3E
:100D2000030101208C46002DA8D0C5E9004CA5E7A1
:100D3000C2F1200320FA03F6974001FA02F04FEACD
:100D4000174ED9403043030CB1FBFEF61FFA87F86B
:100D50000EFB161143EA014306FB08F1994204FA1F
:100D600002F409D9FB1806F1FF3C80F08D8099420E
:100D700040F28A80023E3B445B1A81B2B3FBFEF034
:100D80000EFB103341EA034100FB08F38B4207D905
:100D9000791800F1FF3C73D28B4271D90238394483
:100DA000CB1A40EA064678E7C6F1200C03FA06F4AF
:100DB00022FA0CF31C4320FA0CF701FA06F34FEA6F
:100DC000144E21FA0CF11F433B0CB1FBFEF91FFA44
:100DD00084F80EFB191143EA014109FB08FA8A4520
:100DE00002FA06F200FA06F308D9611809F1FF3099
:100DF00048D28A4546D9A9F102092144A1EB0A014A
:100E0000BFB2B1FBFEF00EFB101147EA014700FB39
:100E100008F8B84507D9E71900F1FF312ED2B845D7
:100E20002CD90238274440EA0940A7EB0807A0FB69
:100E300002894F45C64649461AD317D05DB1B3EB78
:100E40000E0267EB010707FA0CFCF2404CEA0202C3
:100E5000F740C5E9002700263146BDE8F0872E4659
:100E600028460BE70646E9E61846FDE64345E5D287
:100E7000B8EB020E69EB04010138DFE70846D2E760
:100E800060468DE78146B9E7664675E730464AE732
:100E9000ACF1020C394413E702383C4424E700BFAC
:100EA000704700BF014900200AF0B4BAB51D000820
:100EB00008B5642008F0BCFDFBE7000070B5B4B0D5
:100EC00010220021012609A8022420F0C3FE1422CA
:100ED000002102A820F0BEFE0021842213A820F0E9
:100EE000B9FE254B07A800251A6C42F080521A64FF
:100EF0001B6C03F080530093009B204B1A6842F454
:100F000040421A6019221B6803F440430193019B7D
:100F10004FF48033CDE907634FF48003CDE90D43EF
:100F20004FF4C873CDE91144CDE90F2307F018F849
:100F300006F0BEFC0F23062102A8CDE902344FF4CF
:100F4000A053CDE904534FF48053069307F0F4F90E
:100F50000B4B13A81B9513934FF4C0731D96189356
:100F6000052329952E95CDE919434FF400331E939F
:100F700007F0C0FA34B070BD003802400070004085
:100F8000080801002DE980489BB0102200210125AE
:100F90000DA8002420F05EFE05F0FAFB4FF0104192
:100FA000CA4B0DA8ADF834501094CDE90E1305F0DE
:100FB00011FC17230DA88DF835508DF83C308DF8B5
:100FC000425005F007FC042005F0F2FBBFF34F8F01
:100FD000BFF36F8FBE4BC3F85042BFF34F8FBFF3C9
:100FE0006F8F5A6942F400325A61BFF34F8FBFF3DB
:100FF0006F8FC3F88440BFF34F8FD3F8802043F640
:10100000E074C2F3C900C2F34E32520102EA040690
:10101000014646EA81750139C3F86052F9D2203A97
:1010200012F1200FF2D1BFF34F8F5A6942F4803290
:101030005A61BFF34F8FBFF36F8F05F009FB002498
:10104000FFF73CFF142200210DA820F003FEA14B66
:101050000821A1481A6B01274FF0080B4FF4805A62
:1010600042F010029D4D9E4E4FF004091A634FF05E
:1010700010081A6B02F010020292029A1A6B42F0E8
:1010800001021A631A6B02F001020392039A1A6BAF
:1010900042F002021A631A6B02F002020492049AEE
:1010A0001A6B42F040021A631A6B02F0400205927A
:1010B000059A1A6B42F400721A631A6B02F40072FA
:1010C0000692069A1A6B42F008021A631A6B02F033
:1010D00008020792079A1A6B42F480621A631A6B2D
:1010E00002F480620892089A1A6B42F020021A6396
:1010F0001A6B02F020020992099A1A6B42F480726C
:101100001A631A6B02F480720A920A9A1A6B42F0FE
:1011100080021A631A6B02F080020B920B9A1A6B10
:1011200042F004021A6301221B6B03F004030C93C8
:101130000C9B05F0B1FE01224FF48051694805F087
:10114000ABFE0DA96448CDE90DB7CDE90F4405F01C
:101150001BFD0DA96348CDE90DA7CDE90F4405F0AE
:1011600013FD6148614B848003600762C0E9054458
:1011700005F058FB5E4B2846C5E90A44C5E90C4416
:10118000C5E90034C5E9024405F0FDFB39462846AF
:10119000584D05F0B1FC584B40220DA93046B460C3
:1011A000F461B462C6E900344FF4C073C6E90523A4
:1011B0004FF40063C6E9083A4FF0020A0723CDE96D
:1011C0000DA3CDE90F930323CDF84CA0CDE9113A3F
:1011D000C6E9039807F016FC29464FF6FF72304621
:1011E0000194C5E90078C5E9027407F02BFC384684
:1011F00005F056FA29464FF6FF723046C5E900A8B9
:10120000C5E9027407F01EFC032329464FF6FF725E
:101210003046C5E90038C5E902B407F013FC4FF4C5
:101220000C734FF6FF72294601933046019B4FF035
:10123000180BAF60EB60C5E9009807F003FC40F2C3
:101240002B7130462D4D07F014FC43F2D2024FF0C3
:1012500020434FF47A7035261A6005F021FA284BA6
:10126000284928462C62C5E90013C5E90247C5E9AB
:101270000444C5E9064405F057FF2146284606F018
:101280002FF921462846204D06F050F934222146F8
:101290000DEB020020F0DEFC1C4B282040F2152C48
:1012A00040F2352EAC862C6185F83640C5E9003415
:1012B0000923C5E905030B232846C5E9076340F266
:1012C0001B13C5E909C340F21D1321E01B000003F5
:1012D00000ED00E0003802400028024038CB00203A
:1012E00078CB002000200240E4C9002000300240FA
:1012F00000B002405C010020400100A098C900201D
:10130000FFEAC000005C004008CA002000680140FD
:10131000C5E90244C5E90BE306F0B4F94FF488735C
:10132000FF214FF4F072284618930D94ADF86440F5
:101330008DF866402A4DCDE9103ACDE912144FF4EC
:10134000806A0521CDE914A14FF04041CDE90E247A
:10135000CDE916120DA9224606F05FFA2148224B6C
:101360000462C0E900374FF4A063C0E90298C0E905
:1013700004B3C0E9064406F0B7FB04F0E7FF04F04D
:101380002BFF5C2005F0F0F9184A4FF46143284622
:101390002C616C62C5E900230C23C5E90244C5E950
:1013A0000534C5E9074408F06CF900F080FB2A68B1
:1013B000136843F02003136008F08CFA0C4A2146AE
:1013C0000C4808F0C1FA0C4B0C4A214618600C4836
:1013D00008F0BAFA0B4B186008F096FAFEE700BF67
:1013E000B4CA0020ACCB0020001000A000140140C3
:1013F000D02C0208B10E000894C90020AC2C0208C1
:10140000B31A0008B0CA00200268034B9A4201D107
:1014100005F034B9704700BF001000400D4B82B09A
:101420000F216FF001001A6C42F080521A641A6C9E
:1014300002F080520092009A5A6C42F480425A6440
:1014400000225B6C03F480430193019B02B005F022
:101450004BB900BF00380240026882B0084B9A4284
:101460000BD1D3F8302803F5006342F480521A639D
:101470001B6B03F480530193019B02B0704700BFC4
:10148000003002400E4B07B502689A4215D1A3F511
:10149000F04305215A201A6B42F400021A6300221D
:1014A0001B6B03F400030193019B05F01DF95A2007
:1014B00003B05DF804EB05F049B903B05DF804FB37
:1014C00000B0024010B588B004461422002103A8E1
:1014D00020F0C0FB2268134B9A4221D1124C4FF4EA
:1014E000C07201211148236B43F080032363236BF7
:1014F00003F080030193019B1223CDE9032303230F
:10150000CDE90513042303A9079305F03DFB236CE4
:1015100043F400032364236C03F400030293029B4F
:1015200008B010BD005C004000380240001C0240C2
:10153000026808B5094B9A420FD1094A802109482F
:10154000136C23F40003136405F004FC4FF4807162
:101550000448BDE8084005F0FDBB08BD005C004044
:1015600000380240001C024070B58CB004461422C2
:10157000002107A820F06EFB22683F4B9A4278D1E9
:1015800003F55043002402250E265A6C07A93B4858
:1015900042F080625A645A6C02F080620192019AB1
:1015A0001A6B42F010021A631A6B02F010020292D8
:1015B000029A1A6B42F400721A631A6B02F40072F8
:1015C0000392039A1A6B42F480621A631A6B02F454
:1015D00080620492049A1A6B42F040021A631A6BFA
:1015E00002F040020592059A1A6B42F480721A6367
:1015F0001B6B03F480730693069B1023CDE907351C
:10160000CDE909440B9605F0BFFA4EF6FF7307A922
:101610001B480B96CDE90735CDE9094405F0B4FA2E
:10162000F72307A917480B96CDE90735CDE90944FB
:1016300005F0AAFA4FF4805307A91348CDE90735FE
:101640000923CDE909440B9305F09EFA4FF4464374
:1016500007A90E480B96CDE90735CDE9094405F0F9
:1016600093FA58202246052105F03EF8582005F04F
:101670006DF80CB070BD00BF006801400010024062
:1016800000240240002802400018024000200240CE
:10169000142200212DE9F0418AB004460DEB02002E
:1016A00020F0D8FA22682C4B9A4252D12B4B0226BA
:1016B000002503249A6B09274FF0040805A942F07E
:1016C000020227489A639A6B02F002020192019A81
:1016D0001A6B42F010021A631A6B02F010020292A7
:1016E000029A1A6B42F002021A631A6B02F00202AB
:1016F0000392039A1A6B42F008021A631B6B099754
:1017000003F008030493049BCDE90586CDE9075453
:1017100005F03AFA402305A91248CDE905360A2317
:10172000CDE90754099305F02FFA05A90D4809974B
:10173000CDE90586CDE9075405F026FA4FF460534C
:1017400005A909480997CDE90536CDE9075405F003
:101750001BFA0AB0BDE8F081001000A0003802407A
:101760000010024000040240000C0240026808B56C
:101770000B4B9A4213D10B4A04210B48936B23F075
:101780000203936305F0E6FA4421084805F0E2FA03
:101790004FF460510648BDE8084005F0DBBA08BDCB
:1017A000001000A000380240001002400004024077
:1017B000000C024010B588B004461422002103A892
:1017C00020F048FA2268174B9A4229D103F5923348
:1017D000002403A914485A6C42F020025A645A6C3F
:1017E00002F020020192019A1A6B42F004021A637D
:1017F000C0221B6B03F004030293029B0223CDE97A
:1018000003230323CDE905430823079305F0BCF91F
:1018100047202246052104F067FF472004F096FF89
:1018200008B010BD00140140000802402B4BF0B579
:101830001C6887B0002C4ED10122022703260C25FC
:101840001A6001A9264B27489A6B42F001029A635D
:101850009B6B039403F001030093009B4FF683738B
:10186000CDE90465CDE9013705F08EF948F233136F
:1018700001A91D480595CDE90137CDE9034605F0DD
:1018800083F94CF2037301A918480595CDE9013796
:10189000CDE9034605F078F94FF63F0301A9144856
:1018A0000595CDE90137CDE9034605F06DF928230B
:1018B00001A910480595CDE90137CDE9034605F0AA
:1018C00063F9082301A90C480595CDE90137CDE955
:1018D000034605F059F907B0F0BD00BF6C010020C8
:1018E000003802400010024000180240000C024084
:1018F00000140240001C02400008024010B50146DE
:1019000088B00022362004F0EFFE362004F01EFFDF
:10191000144B01A903A81A6C134C42F010021A646C
:101920001B6C03F010030293029B06F0C5FD06F04A
:10193000A3FD0E4B4000236040F2E733E3600C4B05
:10194000B0FBF3F001380023606020462361A36000
:1019500007F0FAF920B9204607F09EF808B010BD4C
:101960000120FBE700380240F8CB002000100040C7
:1019700040420F007047FEE7FEE7FEE7FEE77047D4
:10198000014807F0CBB800BFF8CB0020014807F0B2
:10199000A1BA00BFB4CA0020014805F0E1BE00BFF3
:1019A00008CA0020014805F01CB800BF38CB002051
:1019B0000120704708B520F0F3F8162303604FF0BC
:1019C000FF3008BD08B520F0EBF816230360FEE7F2
:1019D00070B50E4614460025A54201DB204670BDB9
:1019E000AFF3008070550135F6E770B50E4614462A
:1019F0000025A54201DB204670BD705D0135AFF3C7
:101A00000080F6E74FF0FF3070474FF4005300209E
:101A10004B60704701207047002070470B4B024617
:101A2000196810B509B90A491960186809490A4CBA
:101A30000244091B8A4206D920F0B2F80C23036045
:101A40004FF0FF3010BD1A60FCE700BF70010020AE
:101A5000E8CC002000000520000A0000DFF834D0A8
:101A6000002103E00C4B5B58435004310B480C4BF6
:101A700042189A42F6D30B4A02E0002342F8043B94
:101A8000094B9A42F9D304F0F9FC20F0A1F8FFF7D2
:101A900079FA704700000520B87F02080000002096
:101AA0004001002040010020E4CC0020FEE700F0CF
:101AB00051BC00F0BFBC40687047416070470000F7
:101AC000094A136843F080731360A2F54E42074B36
:101AD00052F84C1C4C3A0B431360A2F57B6213681E
:101AE00043F0010313607047FCED00E055CEACC538
:101AF000511A01EB5301B1FBF3F07047014B186829
:101B0000704700BF041000E0704710B504460C2178
:101B10001FF079FA204610BD036810B51B69044612
:101B200031B19847A26863689B1A1844606010BD81
:101B30009847A060FBE70000024B7020024A136048
:101B4000DB6818472C00002074010020704710B596
:101B5000044604211FF057FA204610BD37B50A4D40
:101B60000C462B6813B9002003B030BD1B697020F0
:101B70000192984701990028F5D02B6870202246E1
:101B80005B6998470120EFE7740100207FB50123CE
:101B90008DF817204FF47A72CDE901320DF117025A
:101BA00000920A460146054805F028FB10B103489B
:101BB00005F00BFB07B05DF804FB00BF98C90020DF
:101BC0007FB500230A464FF47A718DF81730012350
:101BD000CDE901310DF1170100910146054805F0ED
:101BE000C3FB10B1034805F0F0FA9DF8170007B0E9
:101BF0005DF804FB98C900207047704770470123C7
:101C000080F8741080F8753070470020704700200D
:101C10007047836B0BB10846184770474FF6FF704B
:101C20007047406803689B691847704738B5044699
:101C300000F0D0FC0A4A4FF0404123682046D3F818
:101C40008050084BA8470023074D84F84A302846A7
:101C5000FFF736FF0123256184F86C3038BD00BFE3
:101C600000FC03C000F807C07801002008B531B9B6
:101C70000A4B4FF425710A4A0A481FF05FFFC0E97A
:101C80000F12003A0849436418BF0122003B0A7052
:101C900018BF0123054A137008BD00BF342D020888
:101CA0006C2D0208BA2D0208D6C60020D7C6002027
:101CB00000F078BC00F07CBC70B500F0A9FC104AC4
:101CC0000023C2F88430BFF34F8FD2F8803043F640
:101CD000E074C3F3C900C3F34E335B0103EA0406A7
:101CE000014646EA81750139C2F87452F9D2203BA7
:101CF00013F1200FF2D1BFF34F8FBFF36F8F70BD81
:101D000000ED00E000F092BC00F028BC00F090BCB8
:101D100000F098BC00F02CBC10B504460BF09AF80B
:101D200023682046D3F8A030BDE8104018470AF0D9
:101D300055BA10B504467C211FF065F9204610BD48
:101D400090F877301BB1406803681B681847184645
:101D50007047000090F83410114B30B590F8744083
:101D60001A788C420DD05AB90E4A0F4914880F4880
:101D70000C8001880E4D11800122298004801A7088
:101D800030BD002AFCD00948074A0188084D11805F
:101D9000044A1488118000222C800480EFE700BFE1
:101DA000D0C60020CCC60020D2C60020CEC600205F
:101DB000D4C60020014608B5034B186801B10121C3
:101DC0000BF062F8012008BDD8C60020034B0022AA
:101DD0005A609A60024A1A60704700BF780100207A
:101DE000FC2C02080121002208B5084607F03AFE43
:101DF0000A4B186028B90A4B27210A4A0A481FF0E3
:101E00009DFE00220421012007F0F2FE074B18601E
:101E100018B9074B2B21034AF0E708BD88010020C1
:101E2000CC2E0208152F0208442F0208840100203E
:101E3000AF2F0208024B4FF0FF31186807F068BE61
:101E400088010020014B186807F09CBE8801002023
:101E5000024B0021186807F05BBE00BF880100201C
:101E6000FFF7F0BF0023034803491A46006807F054
:101E700005BF00BF840100200400002013B500232B
:101E8000074C01A91A46206807F03AFF4FF0FF33CC
:101E9000002201A9206807F033FF02B010BD00BF87
:101EA0008401002007F0A6BD03685B6C1847012081
:101EB000704703689B6A18470D4B82B01A6B42F457
:101EC00000021A631A6B02F400020192019A1A6965
:101ED00042F400021A611A6922F400021A61054BE9
:101EE000054A1A614FF08062044B9A6002B0704755
:101EF0000038024038CB0020091F000800E100E054
:101F000040F2EF3070470000024B1B6858680368CE
:101F10005B691847D8C6002008B50B280BD8DFE846
:101F200000F01206100A0A0A0A0808080808012028
:101F300008BD0520FCE7054B6521054A05481FF053
:101F4000FDFD0020F4E70220F2E700BFF12F0208B8
:101F50000C3002085830020808B50A2809D8DFE812
:101F600000F010060E080808080606060600012004
:101F700008BD054B8621054A05481FF0DFFD0020FE
:101F8000F6E70220F4E700BFF12F0208C130020893
:101F9000583002082DE9F84391F81D800C46404660
:101FA000FFF7BAFFA77F05463846FFF7B5FF06469D
:101FB0003846FFF7D1FFA18A628B534B521A9E46D7
:101FC0001A649A61228B521A1A61E28A586342EAB1
:101FD000014221695A646268D963DA60D4F800C0AA
:101FE00094F81C90BCF1800F4FEA09623BD015D8E1
:101FF000BCF1200F45EA02007AD0BCF1400F77D047
:10200000BCF1040F2BD02A43B8453F4B42F40032B9
:10201000DA610CBF40F201223C4A1EE0BCF5807F31
:1020200007D0BCF5007FEED142F4003242F0090245
:1020300003E042F4003242F00A02DA61E068020290
:10204000440102F47802C00004F47C44C0B222438C
:1020500002431A622E4A5E6259611A6044E040F4FB
:102060000030D861F6E7A0682A43041D42F400322C
:10207000DC62DA6102785E62596142B1012A1CD0E9
:10208000244B4FF48871244A24481FF057FD42889E
:102090000125D969501E21F47F4222F0100242EA44
:1020A0000022DA61184CE36943F02003E361E3693D
:1020B0009B0614D5FFF7F6FEF9E74288B9F1FF0554
:1020C000D96902F1FF3018BF012521F47F4222F0C7
:1020D000100242EA002242F01002DA61E2E7102325
:1020E000A3601DB10A4B2360BDE8F883074BFAE7F4
:1020F00040F40030064BCEF81C00CEF82460CEF839
:102100001410CEF80030EFE700B0024001020100E9
:10211000010202000E31020828310208583002087C
:10212000F8B58E7F0C463046FFF716FFA78AE18A86
:10213000628B1E4B41EA07412569D21B58635964E3
:10214000DD631A642168082918D19A611A615862FE
:10215000174A217F42EA0162DA61E1680A02480116
:1021600002F47802C90000F47C40C9B202430A4379
:102170001A62104A5D61DD601A60F8BD0022D86104
:102180001A61E1681EB99963084B0B4AF4E70A0229
:10219000480102F47802C90000F47C40C9B202434D
:1021A0000A43217F42EA01629A63EDE700B00240F0
:1021B000090001000102020001020300054B4FF07B
:1021C00080620360044BC3F88820BFF34F8FBFF3D6
:1021D0006F8F70477031020800E100E010B50446CF
:1021E000FFF7ECFF4FF4426120461EF00CFF204643
:1021F00010BD000070B504460A4B0C300026254681
:10220000602260602672667245F8203B29460AF01B
:10221000A7FF04F54263EE602035AB42FBD12046B8
:1022200070BD00BF70310208012070475420704714
:10223000542303FB010008307047542303FB0100C3
:10224000083070470120704742F2E060704742F268
:10225000E06303FB01000830704742F2E06303FBD8
:10226000010008307047012070471020704700EBD4
:1022700001100830704700EB011008307047084625
:1022800000F0C8BB034B10B50446036009F0BCFD69
:10229000204610BD2832020810B50446FFF7F2FFB1
:1022A0005C2120461EF0AFFE204610BD034B10B54A
:1022B0000446036009F0A8FD204610BDF431020871
:1022C00010B50446FFF7F2FF42F2E86120461EF027
:1022D0009AFE204610BD0000034B10B50446036073
:1022E00009F092FD204610BDC031020810B5044629
:1022F000FFF7F2FF182120461EF085FE204610BD94
:10230000094B10B50446036000F51C501430FFF76C
:10231000B9FF04F12C00FFF7C9FF04F11400FFF727
:10232000DBFF204610BD00BF5C32020808B5024842
:10233000FFF7E6FF08BD00BF9001002010B504467E
:10234000FFF7DEFF42F6CC0120461EF05CFE204681
:1023500010BD00002DE9F34100F0E8F90024054626
:1023600000F0E8F92346014622462846009411F081
:102370004DFB254B254A2046254D1A6002F06EFA8A
:10238000244811F085FA2B78BFF35B8FDB0734D438
:1023900028461EF03AFE80B31F4C204B04F1140077
:1023A00004F12C08236000F51C576060C4F8088015
:1023B00007F16006E760266109F028FD184B4046EA
:1023C000636109F023FD174B3846E36209F01EFDF7
:1023D000154B07F15C003B6003F036FD224607F128
:1023E0005C01304602F078FB304600F013FB2846D3
:1023F0001EF017FE0D481FF0BFFB0D4802B0BDE8F0
:10240000F041FFF713BC00BF54C70020FC3600208A
:102410008C01002008000020900100205C3202089E
:10242000C0310208F4310208283202082D230008C6
:1024300080360020014809F036BF00BF80360020FA
:1024400070B5244B244C254E254D23603046FFF7B4
:10245000D1FE284614F060FB224B00224FF480711D
:102460004FF4F070DC60204C1A8583F82A20DA6281
:102470001A861A6683F86C201A67C3E912121B4980
:10248000C3E919124FF080715967012183F8781060
:1024900017490B60174908804FF48871C3E904227B
:1024A000C3E90622C3E90822C3E90E22C3E91022C8
:1024B000C3E91422C3E91622C3E9016521800E4C49
:1024C00083F8342022700D4C0D4A20800D481A608C
:1024D000018070BD242D02085C2A0020602A0020A3
:1024E0000037002080360020CEC600200100000109
:1024F000D8C60020CCC60020D0C60020D2C60020FE
:10250000082E0208D4C600200148FFF757BE00BFBE
:10251000602A0020104A002370B5C2F88430BFF34F
:102520004F8FD2F8803043F6E074C3F3C900C3F391
:102530004E335B0103EA0406014646EA8175013920
:10254000C2F87452F9D2203B13F1200FF2D1BFF33D
:102550004F8FBFF36F8F70BD00ED00E0034B9022F3
:1025600083F85A2383F85823704700BF00E100E046
:10257000094A0A49D3680A48C3F30A03013B9BB2DC
:102580000B801169C1F30A01013901801364536B97
:1025900043F0010353637047006801407A3700201D
:1025A00078370020014B986A704700BF846801406B
:1025B000024B0122996243F8602C70478468014005
:1025C000034B5B69DB0301D5FFF7A4BF704700BF76
:1025D00000ED00E070B5044609F053FE2368DD6DA0
:1025E0000EF0AAF801462046A84723682046054A6F
:1025F000D3F880504FF040410023AC46BDE8704016
:10260000604700BF00FC03C009F022BE09F02CBEE9
:1026100008B509F0E9FD044B5B69DB0303D5BDE8B0
:102620000840FFF777BF08BD00ED00E009F045BFA7
:10263000034B4FF080629A604FF080729A6070474F
:1026400000E100E0084B4FF08062C3F88820BFF340
:102650004F8FBFF36F8F4FF08072C3F88820BFF3A6
:102660004F8FBFF36F8F704700E100E0134B144AA8
:102670001B6C11888B4210B5124C13D1124B198868
:1026800005F0F8F8226892F86630013382F8663077
:10269000FFF7E8FB20680AF0DDFB0020BDE81040F2
:1026A000FFF7AABA05F0E6F80020FFF7A6FA2068BF
:1026B0000368BDE81040DB69184700BF00680140AF
:1026C0007A370020D8C6002078370020704710B530
:1026D000044604211EF097FC204610BD08B50629CB
:1026E00021D8DFE801F004080C1014181C0002F0D7
:1026F00001F9006808BD02F0FDF84068FAE702F051
:10270000F9F88068F6E702F0F5F8C068F2E702F041
:10271000F1F80069EEE702F0EDF84069EAE702F04F
:10272000E9F88069E6E70020E4E700000048704728
:102730007C3202080620704713B5002451B10368AB
:1027400001AA01948DF803409C680DF10303A04792
:1027500002B010BD0846FBE740897047808970478A
:102760008088704783798088184480B27047C07928
:1027700000F07F007047C079C0097047704710B5FE
:10278000044608211EF03FFC204610BD704700F5AE
:1027900096730868496803C3704770477047416083
:1027A000704770470123037270477047034608461D
:1027B0009A6B8A4210B408D00A68B3F95010146DAD
:1027C000002223465DF8044B18475DF8044B704720
:1027D00070477047704700000B68084602490022A6
:1027E0001B6DB1F900101847CCC6002030B4446806
:1027F0000346C2689B68551004EB6200D20748BFCD
:10280000625930BC48BFD358184743682BB183681E
:102810002BB9C06800F001007047184670470120CE
:10282000704710B441680346C2689B68541001EBBE
:102830006200D20748BF0A595DF8044B48BFD3581D
:10284000184743682BB183682BB9C06800F00100BA
:102850007047184670470120704710B504460C2198
:102860001EF0D1FB204610BD10B5044610211EF00D
:10287000CAFB204610BD10B504464FF4AC711EF0E3
:10288000C2FB204610BD10B5044654211EF0BBFB10
:10289000204610BD10B5044610211EF0B4FB2046A2
:1028A00010BD10B50DF048FF0368BDE810401B6B6C
:1028B00018470000054B01461B782BB1406818B142
:1028C00003680C311B6E1847704700BFD7C6002045
:1028D0001F4B1B7810B5044613B90123037210BDBA
:1028E00090F84D0094F84C300130C0B2984284F812
:1028F0004D0024D8B4F94E2000210FF030FC10F028
:10290000010283B221D04FF6FF710028D8BF0A46DA
:102910001344A4F85030B4F8501004F10C00238A8A
:102920000022C91A09B2A4F850100EF0F3FE606834
:1029300004F13C010368BDE810405B6F18470123B8
:102940002372002384F84D30C9E7A4F85000E2E771
:10295000D7C6002010B50446D0F83C0158B1036832
:10296000DB68984738B1D4F83C0103689B68984706
:102970000023C4F83C3110BD1FB50C4B04461B7836
:102980008BB10B4B1C226946CDE900304068012316
:10299000CDE9022303685B6F9847606804F10C017E
:1029A0000368DB6D984704B010BD00BFD7C6002098
:1029B000F8380208F8B5044617460E460DF026FF13
:1029C000104B00251C6029460F4BC4E954760F4E6E
:1029D000236030680E4BC4E95255C4E95035036892
:1029E000C4E94E559B689847284601F037FF336885
:1029F00093F876200AB1D86C00B9986815F0BDFD3F
:102A00002046F8BD44C7002090380208D8C60020F0
:102A100078380208064BC0F84401C0F8483100235A
:102A2000C0F84C3100F5A073C0F83C31704700BFCE
:102A3000B12B0008064BC0F84401C0F84831002310
:102A4000C0F84C3100F5A073C0F83C31704700BFAE
:102A5000912D0008064BC0F84401C0F8483100230E
:102A6000C0F84C3100F5A073C0F83C31704700BF8E
:102A7000ED2E00082DE9F84F0746906899468846E4
:102A800003681446DDF828A01B6A9847D72805D8A4
:102A9000414BA321414A42481FF050F86068036847
:102AA0001B6A98470F2803D83E4BA4213B4AF2E704
:102AB000E06803681B6A98470B2803D83A4BA521A6
:102AC000364AE8E70DF038FE0DF084FED9F8000034
:102AD00010B10368DB689847D9F8000010B10368AB
:102AE0001B689847386810B103685B699847D8F845
:102AF000000010B103685B689847386810B103683C
:102B00001B689847D8F8000010B103689B68984785
:102B1000E06800214FF0000B03685B6A9847234B85
:102B20000546C0F804B00360594680F808B0A068B4
:102B300003685B6A9847064603F0F2F960685946F5
:102B400003685B6A98470446314603F0CFF9C9F839
:102B50000050C8F800403E60E4B1231DCAF80030C0
:102B600030463368C4F808A0DB68F46398472368EC
:102B700020461B689847294630460FF0EAFA2B6832
:102B800028461B6998472B6828465B69984720466A
:102B9000BDE8F88F2346E1E70433020892330208C8
:102BA000A2340208E93402088C350208D43802083D
:102BB000D0F8543107B500F59C710093044BD0F860
:102BC00050210448FFF756FF03B05DF804FB00BF37
:102BD00038C7002034C700202DE9F0411B4B0026E8
:102BE0000546044646600F46067245F80C3B2846EB
:102BF0000BF092F9164B2022A56384F84C7084F8F0
:102C00004D60A4F85060C4E90F340123C4E91123D6
:102C1000104B1B78B3B1104B2846104FB3F900800E
:102C2000E368B7F900105B6B26619847E36841469B
:102C300028469B6B984728460BF0EAF83B885B4296
:102C4000A4F84E302046BDE8F08100BF10390208DC
:102C5000F8380208D7C60020CEC60020CCC6002017
:102C60002DE9F04707469068994688460368144660
:102C7000DDF820A01B6A9847B0F5C47F05D23F4B12
:102C8000A3213F4A3F481EF059FF606803681B6A52
:102C900098470F2803D83C4BA421394AF2E7E06853
:102CA00003681B6A9847532803D8384BA521344A38
:102CB000E8E70DF041FD0DF08DFDD9F8000010B1F1
:102CC0000368DB689847D9F8000010B103681B68F7
:102CD0009847386810B103685B699847D8F80000D6
:102CE00010B103685B689847386810B103681B68C7
:102CF0009847D8F8000010B103689B689847E068CF
:102D0000002103685B6A984714210546FFF764FFBA
:102D1000A068002103685B6A9847064603F0F0F953
:102D20006068002103685B6A98470446314603F0F7
:102D30000FF9C9F80050C8F800403E60E4B1231D07
:102D4000CAF8003030463368C4F808A0DB68F46382
:102D50009847236820461B689847294630460FF05D
:102D6000F8F92B6828461B6998472B6828465B6949
:102D700098472046BDE8F0872346E1E70433020880
:102D80002F360208A2340208E93402088C35020802
:102D9000D0F8543107B500F59C710093044BD0F87E
:102DA00050210448FFF75CFF03B05DF804FB00BF4F
:102DB00038C7002034C700202DE9F0470746906847
:102DC0009946884603681446DDF820A01B6A984798
:102DD00042F2DF63984205D83F4BA3213F4A404867
:102DE0001EF0ACFE606803681B6A98470F2803D882
:102DF0003C4BA421394AF2E7E06803681B6A984714
:102E0000532803D8384BA521344AE8E70DF094FC49
:102E10000DF0E0FCD9F8000010B10368DB689847BA
:102E2000D9F8000010B103681B689847386810B1E2
:102E300003685B699847D8F8000010B103685B68C5
:102E40009847386810B103681B689847D8F80000A5
:102E500010B103689B689847E068002103685B6ACB
:102E6000984714210546FFF7B7FEA06800210368C4
:102E70005B6A9847064601F0C3FE6068002103685C
:102E80005B6A98470446314601F03EFEC9F800509F
:102E9000C8F800403E60E4B1231DCAF80030304657
:102EA0003368C4F808A0DB68F463984723682046B9
:102EB0001B689847294630460FF04BF92B68284687
:102EC0001B6998472B6828465B6998472046BDE8F0
:102ED000F0872346E1E700BF0433020852370208B7
:102EE000A2340208E93402088C350208D0F85431C3
:102EF00007B500F59C710093044BD0F850210448AD
:102F0000FFF75AFF03B05DF804FB00BF38C700208D
:102F100034C70020006A7047406A704770478B884A
:102F20008069DB0A0A6850F823001044704710B526
:102F3000C2B1137BB3B1547BD27A240204F4E064AF
:102F40001443C26998B202EB840213888B4202D107
:102F500092F9020010BD05D80138043280B2002871
:102F6000F3D1F7E70020F5E710B5044628211EF05D
:102F70004AF8204610BD000030B589B00446BDF8BF
:102F800050500695BDF84C5005959DF8405004955D
:102F90009DF83C5003959DF8385002959DF83450AB
:102FA00001959DF8305000950EF044FC064B2046EC
:102FB0002360119BA361129BE361159B2362169B07
:102FC000636209B030BD00BF3C3902080020704781
:102FD00081807047C180704701817047418170478F
:102FE0007047704770477047704710B4C4880368D3
:102FF000121B84881B6D091B12B25DF8044B09B2C9
:1030000018474FF6FF7383814FF0FF330362136855
:10301000C36110607047806A70477047704770479F
:103020007047704790F825201AB190F8242002B11B
:103030001860704770477047704770477047704717
:10304000704790F82C302BB1026F026623B1836F6A
:1030500043667047C26EF8E7436FF9E77047704701
:10306000704730B444680346C2689B68551004EB4F
:103070006200D20748BF625930BC48BFD3581847D6
:1030800043682BB183682BB9C06800F0010070471A
:10309000184670470120704730B444680346C26840
:1030A0009B68551004EB6200D20748BF625930BCE0
:1030B00048BFD358184743682BB183682BB9C06801
:1030C00000F001007047184670470120704790F8E3
:1030D0002D3080F85E30704710B5044610211DF089
:1030E00092FF204610BD10B5044610211DF08BFF45
:1030F000204610BD10B504467C211DF084FF2046FB
:1031000010BD10B5044642F2E0611DF07CFF204680
:1031100010BD000000F58E63994210B5044627D11A
:10312000472003F021FB3D4B1B78082B04D13C4A80
:1031300013680133136013E0042B04D1384A536839
:10314000013353600CE0022B04D1354A93680133FC
:10315000936005E0012B03D1314AD3680133D3607A
:10316000304B01221A704720BDE8104003F0EEBA40
:1031700000F2AC4399421CD1472003F0F5FA274BEB
:103180001B78082B03D1264A1368013BD2E7042B96
:1031900003D1234A5368013BD3E7022B03D1204AD2
:1031A0009368013BD4E7012BDAD11D4AD368013B78
:1031B000D5E700F59D63994207D1472003F0D4FA83
:1031C0002368DB6A20469847CDE700F5A66399425D
:1031D00005D1472003F0C8FA23681B6BF2E700F51E
:1031E000AF63994205D1472003F0BEFA23685B6BB9
:1031F000E8E700F5B863994205D1472003F0B4FA37
:1032000023689B6BDEE700F6A413994205D14720A3
:1032100003F0AAFA2368DB6BD4E710BDF83800206E
:10322000803700207C37002010B50446006B50B179
:103230000368DB68984730B1206B21460368BDE81E
:1032400010409B68184710BD08B500F1C4039942AF
:103250000FD1472003F088FA204A137883F08003C7
:10326000137001221E4B1A704720BDE8084003F07E
:103270006DBA00F5A07399420BD1472003F074FAA0
:10328000164A137883F0400313700122144B5A70CE
:10329000EAE700F5DE739942DBD000F50E73994240
:1032A0000BD1472003F060FA0C4A137883F0200317
:1032B000137001220A4B9A70D6E700F52D708142F7
:1032C0000BD1472003F050FA044A137883F010031F
:1032D00013700122024BDA70C6E708BD9037002058
:1032E00091370020074A02600022C0E90122C0E9AC
:1032F0000322C0E90522C0E907224FF480728284CC
:10330000704700BFE4570208036870B50446DB6AE3
:10331000154698472368204629461B6BBDE8704038
:10332000184770B504461D46BDF91060FFF7ECFF65
:103330002368294620465B6B984723683146204620
:103340009B6BBDE87040184710B50446262200214B
:103350001EF080FC2046FFF7C5FF044B204623608B
:10336000FF2384F826300023A36210BD30510208E9
:10337000036880F82C10D3F88430184770B50D46D8
:1033800090F83430044690F82C102A79A2F1020CFF
:10339000DCF1000646EB0C06012A80F8346012D0FE
:1033A0009BB981F00101FFF7E3FF236820465B69C9
:1033B00098472B79012B08D123682046D3F8803019
:1033C000BDE870401847002BF6D070BD10B504461C
:1033D000FFF7BAFF034B204623600023E3622386F6
:1033E00010BD00BFD452020810B5044626220021A9
:1033F0001EF030FC2046FFF775FF074B4FF47F02AD
:1034000020462360054BA3624FF6FF73A38500237C
:10341000C4E90C32238710BD88500208FC32020830
:1034200010B50446FFF7E0FF024B2046236000235F
:10343000E36310BD2C52020873B54FF6FF73018F82
:103440000646994233D01C4B1B682BB91B4BAE214F
:103450001B4A1C481EF072FB1B4A12888A4203D882
:103460001A4BAF21164AF4E713F81120184B1B68CA
:1034700053F82250174B186801F02CFA2B680146BC
:1034800001909B6A284698472B68044601991B6C5B
:103490002846984714FB00F42B682846E4B20199AB
:1034A0005B6A9847044486F8454002B070BD00232B
:1034B00080F84530F9E700BF48C700208C39020882
:1034C000CE390208FC3902084CC70020433A0208F2
:1034D00050C7002054C70020FF22002370B502729D
:1034E0000446124A124E02603268436092F8761027
:1034F000C0E9033309B1D06C00B9906803685B6A16
:1035000098473368B0FA80F5D86C6D0928B1036824
:103510005B6A9847002808BF01252DB9054B2C216F
:10352000054A06481EF00AFB204670BD984D020869
:10353000D8C60020953A0208F33A02082C3B02084C
:1035400070B50446FFF7CEFE4FF47F4300252646B4
:10355000A3850123A56284F824300C4B256384F8ED
:10356000345046F8383B3046FFF730FF2A462946AC
:103570003046C4E91B55C4E91D55FFF7C5FE20467A
:10358000314608F0EBFC204670BD00BF9C3B0208B2
:103590002DE9F04F044600254FF6FF764FF0960BCD
:1035A000DFF8F08304F52B67DFF8EC934FF0420A65
:1035B0002DED108B9DB00EF04FFC2246ED4BE563D8
:1035C00042F8403B104608EE902AFFF7BDFE04F19A
:1035D0006C0318461193FFF7B7FE04F198032622F7
:1035E000294608EE103A1846ADF868601EF032FB26
:1035F00018EE100AFFF776FEDF4B1AA918EE100A34
:10360000C4F89830BDF8683084F8C0604FF488760C
:10361000A4F8BE300BF001FA04F1C403184609EE19
:10362000103AFFF78DFF04F5A073184609EE903AA3
:10363000FFF786FF04F5DE7318460AEE103AFFF72F
:103640007FFF04F50E7318460AEE903AFFF778FFF5
:1036500004F52D7318460BEE103AFFF771FF04F5D1
:103660004C7318460BEE903AFFF7DAFE04F55C73E4
:1036700018460CEE103AFFF7D3FE04F56C731846AB
:103680000CEE903AFFF7CCFE04F57C7318460DEE75
:10369000103AFFF7C5FE04F5866318460DEE903A22
:1036A000FFF7BEFE04F58E63184609930BF08EF902
:1036B00004F2AC4318460A930BF088F904F59D63B5
:1036C00018460EEE103A0BF0EDFA04F5A663184614
:1036D0000EEE903A0BF0E6FA04F5AF6318460FEEE3
:1036E000103A0BF0DFFA04F5B86318460FEE903A83
:1036F0000BF0D8FA04F5C16318461293FFF766FE83
:1037000004F23C6318461393FFF760FE04F5CE63A2
:1037100018461493FFF75AFE04F2A4631846159353
:10372000FFF754FE04F5DB6318460B93FFF75CFECE
:1037300004F2147318460493FFF772FE04F25473F4
:1037400018460593FFF76CFE04F29473184606932F
:10375000FFF766FE04F2D47318460793FFF760FE86
:1037600004F6140318460C93FFF73EFE04F50563B8
:1037700018460D93FFF738FE04F68C0318460E9397
:10378000FFF732FE04F6C80318460F93FFF72CFE2E
:1037900004F6041318461093FFF726FE04F5146090
:1037A00009F08EFE04F68C10FFF796FE734BC4F8FA
:1037B000A059C4F88C3904F6A413184608930BF0EA
:1037C00071FA6F4B4FF4E15104F52C60C4F8A03A44
:1037D0006C4BC4F8A44AC4F8A83A6B4BC4F8AC5A72
:1037E000C4F8B03A694BC4F8B44AC4F8B83AC4F85B
:1037F000BC5A0BF085FA4FF4F0732A46294618EEAE
:10380000900A0096FFF78DFD4FF07F432A46294628
:103810001198A3664FF4F0730096FFF782FD4FF006
:10382000FF3309220E2118EE100AC4F89430FFF776
:103830006BFD4FF005031AA918EE100A544EADF8AF
:1038400068300BF0EAF8012119EE100AFFF790FD3D
:103850002F232A46294604F1FC00CDF800B0FFF7DB
:1038600060FD19EE100AA4F82C51C4E94E86C4E993
:103870004C96FFF7E6FB2F2320221C2119EE100A9D
:10388000CDF800B0FFF74DFD012119EE900AC4F804
:10389000F470FFF76DFD46232A46294604F5BC70F7
:1038A000CDF800A0FFF73DFD19EE900AA4F8A8514D
:1038B000C4E96D86C4E96B96FFF7C3FB4623742207
:1038C000572119EE900ACDF800A0FFF72AFD01213B
:1038D0001AEE100AC4F87071FFF74AFD2F232A462A
:1038E000294604F5FA70CDF800B0FFF71AFD1AEE7C
:1038F000100AA4F82452C4E98C86C4E98A96FFF71A
:10390000A0FB2F232022A8211AEE100ACDF800B028
:103910004FF02D0BFFF705FD01211AEE900AC4F8B8
:10392000EC71FFF725FD46232A46294604F51C7055
:10393000CDF800B0FFF7F5FC1AEE900AA4F8A052FB
:10394000C4E9AB86C4E9A996FFF77BFB4623C922ED
:1039500057211AEE900ACDF800B0FFF7E2FC0121E2
:103960001BEE100AC4F86872FFF702FD2A462946CA
:10397000462313E0603C0208E0530208784D020839
:10398000303C020815310008483C02084932000862
:103990000000DEFF663300FF8A8A8AFF04F53B7071
:1039A000CDF800A0FFF7BDFC1B4B1BEE100AA4F8DE
:1039B0001C53C4F82093C4F82C63C4E9C938FFF73A
:1039C00040FB4623202257211BEE100ACDF800A011
:1039D000FFF7A7FCC4F8E4728E2267211BEE900A61
:1039E0000E4FFFF791FC4FF07F4304F6EC18A4F85C
:1039F0006453C4F860333B682BB9094BAE21094AC4
:103A000009481EF09BF8094E3388052B12D8084B45
:103A1000AF21044AF4E700BF10ADE6FF48C700201D
:103A20008C390208CE390208FC3902084CC7002044
:103A3000433A0208DFF89C93052104F5206AD9F87F
:103A4000000000F047FFE24A03460A2140460FF01B
:103A500011FF1BEE900AC4F86C830AF047FCDFF8F4
:103A6000788304231AA91BEE900ACDF86880ADF87C
:103A70006C300AF058FC642222211CEE100AFFF779
:103A800043FC4FF07F43A4F8A453C4F8A0333B6831
:103A9000002BB2D03388072BB9D90721D9F8000001
:103AA00000F018FFCA4A03460A2150460FF0E2FE12
:103AB0001CEE100AC4F8ACA304F6142A0AF016FC93
:103AC00006231AA91CEE100AADF86C30CDF86880F8
:103AD0000AF029FCD82267211CEE900AFFF714FC9B
:103AE0004FF07F43A4F8E453C4F8E0333B68002B65
:103AF00083D03388092B8AD90921D9F8000000F036
:103B0000E9FEB34A03460A2150460FF0B3FE1CEE0D
:103B1000900AC4F8ECA304F6282A0AF0E7FB08236D
:103B20001AA91CEE900AADF86C30CDF868800AF046
:103B3000FAFB3A2267211DEE100AFFF7E5FB4FF072
:103B40007F43A4F82454C4F820343B68002B3FF48E
:103B500054AF33880B2B7FF65AAF0B21D9F80000F6
:103B600000F0B8FE9A4A03460A2150460FF082FE42
:103B70001DEE100AC4F82CA40AF0B8FB0A231AA9F7
:103B80001DEE100AADF86C30CDF868800AF0CBFB62
:103B90006422AF211DEE900AFFF7B6FB4FF07F4382
:103BA000A4F8645404F63C25C4F860343B68002B48
:103BB0003FF423AF33880D2B7FF629AF0D21D9F8C1
:103BC000000000F087FE824A03460A2128464FF093
:103BD00001060FF04FFE1DEE900AC4F86C5400254C
:103BE0000AF084FB0C231AA91DEE900AADF86C3084
:103BF0000F27CDF868800AF096FBC1224FF4A07120
:103C000009984FF0160AFFF77FFB1AAA032317A99A
:103C1000009219AA09984FF00209ADF8643004F532
:103C2000256BADF86830134618AAADF86060ADF8A2
:103C30005C500AF028FE04F52A62F7210A98A4F8DD
:103C4000A874A4F8AAA40392C4F89824C122FFF788
:103C50005BFB1AAA17A90A98009219AAADF860602E
:103C6000134618AAADF85C50ADF86490ADF86890B2
:103C70000AF009FE039AE6211EEE100AA4F8E47485
:103C8000A4F8E6A4B246C4F8D4242F22FFF73CFBE4
:103C90001AAA19A91EEE100AADF868604FF0FF3697
:103CA000ADF864500AF081FB0E231EEE100AA4F852
:103CB0002035FFF7C1FB039A4FF491711EEE900A75
:103CC000C4F810252F22C4F82465C4F82865FFF72E
:103CD0001BFB1AAA19A91EEE900AADF868A0ADF850
:103CE00064500AF062FB1EEE900AA4F86875FFF7B4
:103CF000A3FB039A4FF4AF711FEE100AC4F85825C6
:103D00002F22C4F86C654FF07F47C4F87065FFF749
:103D1000FBFA1AAA19A91FEE100AADF868A0ADF8AF
:103D200064500AF042FB10231FEE100AA4F8B035CD
:103D3000FFF782FB039A4FF4CD711FEE900AC4F88F
:103D4000A0252F22C4F8B465C4F8B865FFF7DCFAE3
:103D50001AAA19A91FEE900AADF868A04FF03B0A05
:103D6000ADF864500AF021FB11231FEE900AA4F86D
:103D7000F835FFF761FB039A3123EC211298C4F860
:103D8000E8257822CDF800A0C4F8FC65C4F80066E8
:103D9000FFF7C7FA312378224FF494711398CDF8C6
:103DA00000A0C4F83066C4F83476A4F83896FFF75B
:103DB000B8FA312378224FF4B2711498CDF800A0EC
:103DC000C4F86466C4F86876A4F86C9606E000BF90
:103DD0008E3B020854C70020FC320208FFF7A1FA0C
:103DE000312378224FF4D0711598CDF800A0C4F893
:103DF0009866C4F89C76A4F8A096FFF792FA092278
:103E00004FF499710B98C4F8CC66C4F8D076A4F836
:103E1000D496FFF779FA12231AA90B98DFF8B8A302
:103E2000C4F80877A4F80C57ADF86C30CDF868806A
:103E30000AF079FA8C22F7210498FFF765FADAF88C
:103E40000030C4F84477A4F84857002B3FF4D5ADB0
:103E5000DFF88893B9F80030142B7FF6D8ADDC4B2F
:103E60001421186800F036FDDA4A03460A21584644
:103E70000FF000FD0498C4F850B704F6642B0AF064
:103E800035FA13231AA90498ADF86C30CDF8688080
:103E90000AF049FA8C2240F233110598FFF734FA00
:103EA000DAF80030C4F88477A4F88857002B3FF480
:103EB000A4ADB9F80030162B7FF6A9ADC44B16217E
:103EC000186800F007FDC34A03460A2158460FF060
:103ED000D1FC0598C4F890B704F6782B0AF006FADE
:103EE00015231AA90598ADF86C30CDF868800AF052
:103EF0001AFA8C2240F26F110698FFF705FADAF8E9
:103F00000030C4F8C477A4F8C857002B3FF475AD4F
:103F1000B9F80030182B7FF67AADAD4B1821186830
:103F200000F0D8FCAB4A03460A2158460FF0A2FC29
:103F30000698C4F8D0B704F68C2B0AF0D7F91723EB
:103F40001AA90698ADF86C30CDF868800AF0EBF944
:103F50008C2240F2AB110798FFF7D6F9DAF800305F
:103F6000C4F80478A4F80858002B3FF446ADB9F81B
:103F700000301A2B7FF64BAD954B1A21186800F0D4
:103F8000A9FC944A03460A2158460FF073FC07988F
:103F9000C4F810B80AF0AAF919231AA90798ADF8BD
:103FA0006C30CDF868800AF0BEF964220C98392193
:103FB000FFF7AAF91E231AA90C98C4F84478A4F8AC
:103FC0004858ADF86C30CDF868800AF0ACF964223E
:103FD0000D98C621FFF798F91F231AA90D98C4F868
:103FE0008078A4F88458ADF86C30CDF868800AF079
:103FF0009AF98E220E987E21FFF786F920231AA9BE
:104000000E98C4F8BC78A4F8C058ADF86C30CDF860
:1040100068800AF088F9D8220F987E21FFF774F99A
:1040200021231AA90F98C4F8F878A4F8FC58ADF821
:104030006C30CDF868800AF076F93A2210987E212B
:10404000FFF762F922231AA91098C4F834794FF0C7
:104050000107A4F83859ADF86C30CDF868800AF043
:1040600062F90898C12240F28911FFF74DF91AAAA6
:1040700019A90898ADF86450251DADF868700AF0CC
:1040800094F923230898A4F8DC39FFF7D5F9039BAA
:1040900018EE901A2846C4F8CC39C4F8E069C4F880
:1040A000E46907F05BFF1199284607F057FF18EE07
:1040B000101A284607F052FF19EE101A284607F08A
:1040C0004DFF19EE901A284607F048FF1AEE101A15
:1040D000284607F043FF1AEE901A284607F03EFFE5
:1040E0001BEE101A284607F039FF1BEE901A2846DF
:1040F00007F034FF1CEE101A284607F02FFF1CEEC5
:10410000901A284607F02AFF1DEE101A284607F0DD
:1041100025FF1DEE901A284607F020FF0999284632
:1041200007F01CFF0A99284607F018FF1EEE101A28
:10413000284607F013FF1EEE901A284607F00EFFE0
:104140001FEE101A284607F009FF1FEE901A2846A6
:1041500007F004FF1299284607F000FF139928463C
:1041600007F0FCFE1499284607F0F8FE159928463A
:1041700007F0F4FE0B99284607F0F0FE0499284654
:1041800007F0ECFE0599284607F0E8FE0699284658
:1041900007F0E4FE0799284607F0E0FE0C99284650
:1041A00007F0DCFE0D99284607F0D8FE0E99284648
:1041B00007F0D4FE0F99284607F0D0FE1099284644
:1041C00007F0CCFE2846089907F0C8FE08E000BFBB
:1041D00054C700208E3B020848C700204CC700206F
:1041E00020461DB0BDEC108BBDE8F08F70477047C6
:1041F00081857047808D704710B504463C211CF0C6
:1042000002FF204610BD10B50446D8211CF0FBFE6D
:10421000204610BD08B5B0F8D43053B1013B9BB275
:10422000A0F8D4302BB90CF087FABDE80840FEF7AF
:1042300001BC08BD036870B504465B6B1546984722
:104240002368204629469B6BBDE870401847000054
:104250002DE9FF41044600250DF0FEFD3A4B2646B0
:1042600004F16C08E56304F1980746F8403B3046DA
:10427000FFF76AF84046FFF767F84FF480724FF691
:10428000FF7303A9A4F8BC203846304AA4F8BE3016
:10429000C4F8982084F8C030ADF80C30C4E9275534
:1042A000C4E92955C4E92B55C4E92D550AF0B5FBDD
:1042B000274B2A462946C4F89830304684F8C15026
:1042C000A4F8C250A4F8C450C4F8D050A4F8D450F4
:1042D000FFF71AF830464FF488724FF4F071FFF789
:1042E000A9FF4FF07F432A462946A3664046FFF7C1
:1042F0000BF840464FF488724FF4F071FFF79AFFC5
:104300004FF0FF3359223846C4F89430BA21FEF7F3
:10431000FBFF042303A93846ADF80C300AF07DFBFF
:10432000201D314684F8C050019007F017FE414629
:10433000019807F013FE0198394607F00FFE20465A
:1043400004B0BDE8F08100BF183D0208E053020848
:10435000A83C020890F8293070B50446002B34D0F0
:10436000408DA38D013080B2984260852DD3218E7F
:10437000C01A628EE38D80B2521A656B002112B2B0
:10438000A84794F83030184484F8280020460DF0EF
:1043900091F9A38DE18D628D0B449A4215D30023D0
:1043A00084F82930E3850CF0C7F921460CF0FCF9BC
:1043B000A06B50B10368DB68984730B1A06B214611
:1043C0000368BDE870409B68184770BD08B5FFF7EB
:1043D000C1FF08BD70B590F8C1200025044600F16A
:1043E0009806C0F8D05022B90CF0A6F931460CF06E
:1043F000A9F994F8C0300D4AA4F8C830FF23C4F8D6
:10440000CC200122A4F8CA30782384F8C120A4F873
:10441000C630D4F8C420A4F8C2501D4612B93046A4
:10442000FFF798FFA4F8D45070BD00BFC921010860
:104430007047000030B5154D8DB02C78BFF35B8F01
:1044400014F001041FD128461CF0DFFDD8B13F2332
:104450008F220F4907930F4B0F4806930F4B089479
:1044600005930123CDE9034302930423CDE90944D5
:10447000CDE900330D23FEF77FFD28461CF0D1FD6A
:1044800007481DF079FB04480DB030BD9837002077
:1044900078380690707202089C370020443D02086C
:1044A000314400087047000030B5154D8DB02C78B0
:1044B000BFF35B8F14F001041FD128461CF0A5FD4B
:1044C000D8B13F2387220F4907930F4B0F4806931C
:1044D0000F4B089405930123CDE903430293042372
:1044E000CDE90944CDE900330F23FEF745FD284609
:1044F0001CF097FD07481DF03FFB04480DB030BD90
:10450000C43700204C40069098720208C83700203B
:10451000B03D0208A54400087047000030B5164DB4
:104520008DB02C78BFF35B8F14F0010420D12846A6
:104530001CF06BFDE0B13F23042210490793104BA0
:1045400010480693104B089405930123CDE90343CB
:1045500002930723CDE90944CDE9003219238B22C8
:10456000FEF70AFD28461CF05CFD08481DF004FB20
:1045700004480DB030BD00BFF0370020B0470690B2
:1045800030730208F4370020B43D020819450008D2
:104590007047000030B5164D8DB02C78BFF35B8F9F
:1045A00014F0010420D128461CF02FFDE0B13F2378
:1045B000042210490793104B10480693104B08949F
:1045C00005930123CDE9034302930A23CDE909446E
:1045D000CDE9003223238C22FEF7CEFC28461CF0C6
:1045E00020FD08481DF0C8FA04480DB030BD00BFDA
:1045F0001C3800204C4F06903C75020820380020E3
:104600001C3E0208914500087047000030B5164D69
:104610008DB02C78BFF35B8F14F0010420D12846B5
:104620001CF0F3FCE0B13F23042210490793104B28
:1046300010480693104B089405930123CDE90333EA
:1046400002930223CDE90944CDE900320A23BE22B8
:10465000FEF792FC28461CF0E4FC08481DF08CFA9A
:1046600004480DB030BD00BF48380020F456069015
:10467000447902084C380020843E020809460008AC
:104680007047000030B5164D8DB02C78BFF35B8FAE
:1046900014F0010420D128461CF0B7FCE0B13F2300
:1046A000042210490793104B10480693104B0894AE
:1046B00005930123CDE9033302930523CDE9094492
:1046C000CDE900321423BE22FEF756FC28461CF02A
:1046D000A8FC08481DF050FA04480DB030BD00BFDA
:1046E00074380020586106907879020878380020E4
:1046F000883E0208814600087047000030B5164D1C
:104700008DB02C78BFF35B8F14F0010421D12846C3
:104710001CF07BFCE8B13F23012210490793104BAA
:1047200010480693104B089405930223CDE90333F8
:104730000423CDE901320823BE2200932823CDE9CA
:104740000944FEF719FC28461CF06BFC07481DF0D5
:1047500013FA04480DB030BDA0380020BC6B0690A1
:104760008C7B0208A43800208C3E0208F946000821
:1047700000207047002070470EB403B503AB002142
:1047800053F8042B01930CF073FE02B05DF804EBB8
:1047900003B070470CB407B504AB53F8042B019376
:1047A0000CF066FE03B05DF804EB02B07047000049
:1047B000C36B10B5044673B3038E2BB9184BBF21DE
:1047C000184A19481DF0BAF9C38D00EB43035B8BFF
:1047D0000BB30EF097FA238E012B03D8134BC42191
:1047E000134AEEE7E28D40F63F10531C9BB2092BB3
:1047F000194688BFA3F10A0104EB4101498B8142AC
:1048000009D10A2B04EB420228BF0023508B04EB92
:104810004303588351832046BDE810400EF056B93B
:10482000903E0208993E0208443F02088E3F02086B
:104830009C3F02080EF004B910B586B002AC84E8C3
:1048400006001A460AAB214605930193099B009383
:10485000089B0BF017FB06B010BD000038B518BB65
:10486000124B13481B681349B3B11A689C681A4469
:104870001C4402605A681A440A600F4B00221A80D6
:1048800000F038F8054600F033F80C4B1C600C4B78
:104890001D600C4B188007E00B4B03600B4B0B604B
:1048A0000B4B1C68002CE8D138BD00BFCC38002071
:1048B000D0380020D4380020D838002048C7002045
:1048C00050C700204CC70020B07606902076069096
:1048D0004C770690044B1B6853F82100034B1B6870
:1048E00003EB4000704700BFD4380020D0380020D0
:1048F0002420704700487047DC38002010B50B4C6E
:10490000FFF7C0FE2060FFF7F9FE6060FFF77EFE54
:10491000A060FFF7C9FDE060FFF700FE2061FFF730
:1049200039FE6061FFF786FDA06110BDDC38002014
:104930007047704710B504464FF4C4711CF063FB18
:10494000204610BD2DE9F04F044687B000250DF03C
:1049500083FA2646544B04F16C0B04F1980AE56384
:1049600004F1D40946F8403B3046FEF7EDFC5846CA
:10497000FEF7EAFC04F58878504604F5A677FEF7C2
:1049800033FD4846FEF730FD4046FEF72DFD384624
:10499000FEF72AFD4FF488732A46294630460093D5
:1049A0004FF4F073FEF7BDFC4FF07F432A462946D3
:1049B000A3664FF48873584600934FF4F073FEF7E4
:1049C000B0FC4FF0FF3374225046C4F89430862177
:1049D000FEF79AFC4FF07F4304A95046C4F8C83054
:1049E000324BA4F8CC500493ADF8145009F09BFC62
:1049F000484674224FF49971FEF786FC2B4B4FF01A
:104A00007F4204A9049301234846C4F80421A4F872
:104A10000851ADF8143009F086FC404674224FF47A
:104A20009971FEF771FC214B4FF07F4204A904936A
:104A300002234046C4F84021A4F84451ADF8143094
:104A400009F071FC384674224FF49971FEF75CFC52
:104A5000164B4FF07F4204A904930323C4F87C2132
:104A60003846A4F88051ADF8143009F05CFC201DE4
:104A70003146039007F072FA5946039807F06EFA30
:104A80005146039807F06AFA4946039807F066FA18
:104A90004146039807F062FA0398394607F05EFA38
:104AA000204607B0BDE8F08F78400208FC320208CB
:104AB000704710B504464FF4AC711CF0A4FA2046C0
:104AC00010BD10B50446D0F8540101F0C1F92046DC
:104AD000BDE810400BF02ABD10B50446FDF76AFF93
:104AE000014B2046236010BDAC40020870470438DB
:104AF0007047704710B5044610211CF084FA204618
:104B000010BDA0F10400F5E70022C1608260044AF4
:104B100010B502F1080420320460426010BD00BFED
:104B2000E84002087047704708B5FEF789FA472049
:104B300001F00CFE142203490348BDE8084004F0CC
:104B400015BE00BF8C390020B4CA002010B5044641
:104B500042F2E0611CF057FA204610BD0023052008
:104B600010B5054C237001F09BFD044B96221A7082
:104B70000823237010BD00BFF838002054390020EE
:104B80000023052010B5054C237001F089FD044B6E
:104B900096221A700423237010BD00BFF83800203D
:104BA000543900200023052010B5054C237001F076
:104BB00077FD044B96221A700223237010BD00BFAC
:104BC000F8380020543900200023052010B5054C8A
:104BD000237001F065FD044B96221A7001232370A7
:104BE00010BD00BFF838002054390020034A0520CA
:104BF000137883F00103137001F052BD0C00002004
:104C000010B50446FEF7C4FC014B2046236010BDDE
:104C10001C41020810B44367019B5DF8044B836795
:104C20000368C0E91B12D3F8843018470000000065
:104C30002DE9F04F6A4F04466A4D2DED088B3B7805
:104C400087B001333B702B78012B06D114226649C3
:104C5000664804F08BFD00232B70634B644D19787C
:104C600098465A78FB29634EDFF8909140F0AD806A
:104C7000A02A40F0AC80DB7CA52B40F0A48098F803
:104C80000210092900F29F8098F80620092A00F2F4
:104C90009A8098F80A30092B00F2958098F80EC097
:104CA000BCF1090F00F28F8098F80300B2EE047A8D
:104CB000DFF84CA100EB012098F8071007EE900AEE
:104CC00001EB022198F80B20F8EEE77A98F805003E
:104CD00002EB032298F80F30C7EE876A07EE901AAE
:104CE00003EB0C23F8EEE77AC5ED006AC7EE876A9E
:104CF00007EE902AF8EEE77AC5ED016AC7EE876AFB
:104D000007EE903A98F8043000EB0320F8EEE77ACB
:104D1000C5ED026AC7EE876A07EE900AF8EEE77AF9
:104D200017EE900AC5ED036AFBF726FC0022324B12
:104D3000FBF7A4FDFBF712FF98F80830CAF8000053
:104D400098F8090000EB032007EE900AF8EEE77AE6
:104D500017EE900AFBF710FC0022274BFBF78EFDA5
:104D6000FBF7FCFE98F80C30CAF8040098F80D0028
:104D700000EB032007EE900AF8EEE77A17EE900AB0
:104D8000FBF7FAFB00221C4BFBF778FDFBF7E6FE76
:104D900098F81030CAF8080098F8110000EB0320CA
:104DA00007EE900AF8EEE77A17EE900AFBF7E4FBBD
:104DB000114B0022FBF762FDFBF7D0FE98F8123092
:104DC000CAF80C003370002307E0A02AFBD0D9F802
:104DD00000300133B3F5967F14D2C9F8003018E0E3
:104DE0004C390020783900208C390020B4CA0020CA
:104DF0003C3900209037002000002440503900202A
:104E0000100000200023C9F800300BF095FCFDF7DE
:104E100011FEF3EE067A95ED007A002304F1C40B3F
:104E200004F5DE7A0121B4EEE77A95ED017A88F88F
:104E300001305846F1EE10FAB4EEE77A95ED027AB9
:104E40009CBF00232B60F1EE10FAB4EEE77A95EDEB
:104E5000037A9CBF00236B60F1EE10FAB4EEE77AA0
:104E60009CBF0023AB60F1EE10FA9CBF0023EB6007
:104E700096F90030002B80F28381FEF779FA012148
:104E80005046FEF775FAF3EE0E7A95ED008AB4EE11
:104E9000E78AF1EE10FA00F21A81DFF83C836FF036
:104EA000FF02CB4B5846CB49CDF80080FFF7B2FE4E
:104EB000C74B6FF0FF02CDF80080C6495046FFF7A0
:104EC000A9FE58460CF0F6FB50460CF0F3FB337885
:104ED00004F5A07A01215B06504640F1D781FEF728
:104EE00047FAF3EE0E7A95ED018AB4EEE78AF1EE19
:104EF00010FA00F29181B84B6FF0FF020093B44BAF
:104F0000B4495046FFF786FE504604F50E7A0CF081
:104F1000D1FB3378012150469A0640F1F981FEF722
:104F200027FAF3EE0E7A95ED028AB4EEE78AF1EEF7
:104F300010FA00F2B381A84B6FF0FF020093A44B6C
:104F4000A4495046FFF766FE504604F52D7A0CF052
:104F5000B1FB337801215046DB0640F11B82FEF79E
:104F600007FAF3EE0E7A95ED038AB4EEE78AF1EED6
:104F700010FA00F2D581984B6FF0FF020093944B2A
:104F800094495046FFF746FE5046DFF884820CF005
:104F900091FB924A13789146082B40F00B824FF018
:104FA0007F4A04F2147BC4F844A758460CF082FBF5
:104FB00004F25470C4F884A70CF07CFB04F29470E3
:104FC000C4F8C4A70CF076FB04F2D470C4F804A8AB
:104FD0000CF070FB804B5846C4F844370CF06AFB69
:104FE00098F80030013B88F800307D4B1B78012B8E
:104FF00040F0F98296237B4A7B4988F800300968A3
:1050000013687A480B447A49222B03600B6000F244
:10501000C981232303600B6000231360704B0022BF
:105020001A700122734B1A703B781D2B40F2968642
:1050300096F90030D5ED007AD5ED01AA002BD5ED1B
:10504000029ABDEEE7BAD5ED038ABDEEEAAABDEE3F
:10505000E99A96F800A0BDEEE88A80F2268317EE62
:10506000900ADFF8B0B1FBF787FA614B06460F46AE
:105070001D682846FBF76EFA00225F4B8046894682
:10508000FBF71AF902460B4630463946FBF752FD4C
:10509000002800F0B0824046494645A3D3E90023EA
:1050A000FBF70CF902460B4630463946FBF738FD54
:1050B000002800F0A0820123CBF80030DBF800309C
:1050C000002B40F0B8824D4B83ED00BAB7E218EEEA
:1050D000100AFBF751FA8046894637A3D3E900232B
:1050E000FBF728FDA8B1DFED467AB4EEE78AF1EED2
:1050F00010FA0ED5DFF8E0805846354B414A354965
:10510000CDF80080FFF786FD314B3E4ACDF8008098
:10511000D3E62BA3D3E9002340464946FBF70AFD1B
:10512000A8B1DFED397AB4EEE78AF1EE10FA0ED5C8
:10513000DFF8A4805846264B344A2649CDF8008033
:10514000FFF768FD224B314ACDF80080B5E61EA37B
:10515000D3E9002340464946FBF7ECFC00283FF426
:10516000B0AEDFF874805846194B42461949CDF865
:105170000080FFF74FFD164B4246CDF800809CE6BD
:10518000FEF7F6F801215046DFF84C80FEF7F0F804
:10519000104A0F4B58461146CDF80080FFF73AFDF4
:1051A0000C4A0B4B1146CDF8008087E6AFF3008028
:1051B0009A9999999999D93F6666666666663E405E
:1051C000333333333333444033333333333349406E
:1051D000663300FF8A8A8AFF0000FFFFF83800204C
:1051E0007C3700208037002020000020FC38002081
:1051F000100000202C3900200000E03F1C39002066
:1052000000002042009BFFFF00004842005FFFFFBC
:10521000543900205839002018EE100AFBF7ACF979
:1052200080468946B0A3D3E90023FBF783FC58B13D
:10523000DFEDAF7AB4EEE78AF1EE10FA04D5AD4BAC
:10524000AD4A0093AD4B5BE6A3A3D3E900234046F0
:105250004946FBF76FFC58B1DFEDA97AB4EEE78A57
:10526000F1EE10FA04D5A34BA64A0093A34B47E6F0
:105270009BA3D3E9002340464946FBF75BFC00288B
:105280003FF442AE9B4A9D4B009239E6FEF770F820
:10529000984B9D4A00931146984B32E618EE100A3F
:1052A000FBF76AF9804689468FA3D3E90023FBF711
:1052B00041FC58B1DFED8E7AB4EEE78AF1EE10FAD8
:1052C00004D58C4B8C4A00938C4B39E682A3D3E9EE
:1052D000002340464946FBF72DFC58B1DFED887AA4
:1052E000B4EEE78AF1EE10FA04D5824B854A0093BA
:1052F000824B25E67AA3D3E9002340464946FBF7D3
:1053000019FC00283FF420AE7A4A7C4B009217E645
:10531000FEF72EF8774B7C4A00931146774B10E648
:1053200018EE100AFBF728F9804689466EA3D3E9E8
:105330000023FBF7FFFB58B1DFED6D7AB4EEE78A8F
:10534000F1EE10FA04D56B4B6B4A00936B4B17E6EA
:1053500061A3D3E9002340464946FBF7EBFB58B174
:10536000DFED677AB4EEE78AF1EE10FA04D5614B0F
:10537000644A0093614B03E659A3D3E900234046F6
:105380004946FBF7D7FB00283FF4FEAD594A5B4B7B
:105390000092F5E5FDF7ECFF564B5B4A0093114692
:1053A000564BEEE5412B7FF639AE412303600B608F
:1053B0001E2332E6042B46D14FF07F4A04F2547B81
:1053C00004F21470C4F844A70CF074F95846C4F8F9
:1053D00084A70CF06FF904F29470C4F8C4A70CF021
:1053E00069F904F2D470C4F804A80CF063F9414BD5
:1053F0005846C4F884370CF05DF998F80030013B4A
:1054000088F80030414B1B78012B40F0EC8096234C
:105410003F4A404988F80030096853683E480B44C9
:105420003E49222B43604B6005D8232343604B60E9
:1054300000235360F2E5412B7FF6F0AD412343603A
:105440004B601E23F5E7022B6AD14FF07F4A04F22E
:10545000147004F2947BC4F844A70CF02BF904F206
:105460005470C4F884A70CF025F95846C4F8C4A7B2
:105470000CF020F904F2D470C4F804A80CF01AF966
:105480001C4B5846C4F8C4370CF014F998F8003097
:10549000013B88F800301D4B1B78012B40F0A380A6
:1054A00096231B4A1B4988F80030096893681A48FC
:1054B0000B441A49222B83608B6005D82323836019
:1054C0008B6000239360A9E5412B7FF6A7AD4123B4
:1054D00083608B601E23F5E733333333333344402B
:1054E00033333333333349406666666666663E401F
:1054F000000020420000FFFF009BFFFF663300FF1B
:1055000000004842005FFFFF8A8A8AFF7C37002044
:105510008037002020000020FC38002010000020F0
:10552000012B45D14FF07F4A04F21470C4F844A710
:105530000CF0C0F804F25470C4F884A70CF0BAF868
:1055400004F29470C4F8C4A70CF0B4F804F2D47058
:10555000C4F804A803900CF0ADF8B14B0398C4F85C
:1055600004380CF0A7F898F80030013B88F80030B8
:10557000AC4B1B78012B36D19623AB4AAB4988F84C
:1055800000300968D368AA480B44AA49222BC3609B
:10559000CB6005D82323C360CB600023D3603DE5F7
:1055A000412B7FF63BAD4123C360CB601E23F5E763
:1055B000CBB94FF07F4A04F21470C4F844A70CF042
:1055C00079F804F25470C4F884A70CF073F804F26C
:1055D0009470C4F8C4A70CF06DF804F2D470C4F849
:1055E00004A80CF067F898F80030002B7FF41CAD8D
:1055F00089F8003018E500228F4B40464946FAF7FB
:105600005DFE02460B4630463946FBF793FA70B909
:105610000022894B40464946FAF74EFE02460B46A9
:1056200030463946FBF772FA00283FF447AD834B0A
:1056300000221A6042E5012B01D1814B1D601AF056
:10564000400200F08D801AEE900ADFF8F0B1FAF710
:1056500093FF784B06460F465D682846FAF77AFFB7
:105660000022784B80468946FAF726FE02460B4612
:1056700030463946FBF75EFAD8B14046494666A344
:10568000D3E90023FAF71AFE02460B4630463946A4
:10569000FBF746FA68B10123CBF80430DBF804309D
:1056A00033BB674B83ED01AA26E0644B00221A60EE
:1056B00009E50022604B40464946FAF7FFFD0246E5
:1056C0000B4630463946FBF735FA68B900225A4B8B
:1056D00040464946FAF7F0FD02460B463046394649
:1056E000FBF714FA0028D9D0544B00225A60D5E7B2
:1056F000012B01D1524B5D601AF020034F4D00F099
:10570000888019EE900AFAF737FF4A4B06460F4693
:10571000D3F808B05846FAF71DFF0022494B8046DF
:105720008946FAF7C9FD02460B4630463946FBF773
:1057300001FAC0B14046494637A3D3E90023FAF73E
:10574000BDFD02460B4630463946FBF7E9F950B13C
:105750000123AB60AB681BBB394B83ED029A24E09D
:10576000364B5A609DE70022334B40464946FAF7D4
:10577000A5FD02460B4630463946FBF7DBF968B912
:1057800000222D4B40464946FAF796FD02460B464D
:1057900030463946FBF7BAF90028DBD00023D8E7BA
:1057A000012B02D1264BC3F808B01AF0100300F009
:1057B000288318EE900AFAF7DFFE1E4B06460F46C6
:1057C000D3F80CA05046FAF7C5FE00221D4B8046C8
:1057D0008946FAF771FD02460B4630463946FBF71B
:1057E000A9F988B3404649460BA3D3E90023FAF749
:1057F00065FD02460B4630463946FBF791F918B372
:105800000123EB60EB68002B3ED10D4B83ED038A47
:105810003FE0AB60A0E700BF9A9999999999D93F69
:105820000000FFFF7C370020803700202000002090
:10583000FC380020100000200000F83F58390020FC
:105840001C3900200000E03F00220E4B4046494634
:10585000FAF734FD02460B4630463946FBF76AF943
:1058600068B90022074B40464946FAF725FD024633
:105870000B4630463946FBF749F90028C2D00023D1
:10588000BFE700BF0000F83F012B02D1D64BC3F8A1
:105890000CA0D64B1A789846002A40F0C9801D23E8
:1058A00004F6A410D04F04F52065A4F8DC3904F602
:1058B0003C290390FDF7C0FD03980BF0FBFE3B680D
:1058C000CB4A0A212846CB4E0DF0D4FF04F55C707C
:1058D000C4F8AC531C250BF0EDFE04F6140004A92B
:1058E0000496ADF81450039008F01DFD03980BF0DA
:1058F000E1FE3B68BE4A0A2148460DF0BBFF04F5B5
:105900008660C4F86C9404F6EC190BF0D3FE04F531
:10591000056004A90496ADF81450039008F003FD47
:1059200003980BF0C7FE7B68B14A0A2148460DF088
:10593000A1FF04F54C70C4F86C9304F614290BF025
:10594000B9FE04F68C0004A90496ADF81450039037
:1059500008F0E9FC03980BF0ADFEBB68A44A0A21ED
:1059600048460DF087FF04F56C70C4F8EC930BF01B
:10597000A1FE04F6C80004A90496ADF814500390E3
:1059800008F0D1FC03980BF095FE04F62820FB6884
:105990000A210746964A0DF06DFF04F57C70C4F8A5
:1059A0002C740BF087FE04F6041004A90496ADF8DD
:1059B000145004F52565904E039008F0B4FC03984C
:1059C0000BF078FE33688A4A0A2128460DF052FF10
:1059D000C4F8505704F6642504F214700BF06AFE04
:1059E0007368834A0A2128460DF044FFC4F8905793
:1059F00004F6782504F254700BF05CFEB3687C4A20
:105A00000A2128460DF036FFC4F8D05704F68C253D
:105A100004F294700BF04EFEF368754A0A21284692
:105A20000DF028FF04F2D470C4F810580BF042FEB9
:105A300098F80030012B40F08E811C2304F6A4104E
:105A4000694D04F63C29A4F8DC390390FDF7F4FC19
:105A500003980BF02FFED5ED007A684EF8EEE77A4A
:105A6000DFF8948117EE900AFAF786FD5CA3D3E97C
:105A70000023FAF7D9FD0022614BFAF71FFCFBF770
:105A80006DF8D5ED017A07463060F8EEE77A17EE4B
:105A9000900AFAF771FD52A3D3E90023FAF7C4FD87
:105AA0000022574BFAF70AFCFBF758F8D5ED027ABB
:105AB0007060F8EEE77A17EE900AFAF75DFD48A3FA
:105AC000D3E90023FAF7B0FD00224D4BFAF7F6FBBD
:105AD000FBF744F8B060E8684A4D07EE900AF8EE2C
